:100000000C943F000C945C000C945C000C945C001D
:100010000C945C000C945C000C945C000C945C00F0
:100020000C945C000C945C000C945C000C945C00E0
:100030000C945C000C945C000C9473000C945C00B9
:100040000C945C000C945C000C945C000C945C00C0
:100050000C945C000C945C000C945C000C945C00B0
:100060000C945C000C945C00130B160B1A0B1D0B0C
:10007000200B230B260B290B2C0B2F0B320B1124DF
:100080001FBECFEFD8E0DEBFCDBF11E0A0E0B1E0F2
:10009000ECEDFAE102C005900D92A230B107D9F75C
:1000A00021E0A2E0B1E001C01D92AA31B207E1F760
:1000B0000E94500B0C946C0D0C94000082E084BDE7
:1000C00095E095BD9AE797BD80936E0008952FB790
:1000D000F894609102017091030180910401909164
:1000E00005012FBF08951F920F920FB60F92112492
:1000F0008F939F93AF93BF938091020190910301DF
:10010000A0910401B09105010796A11DB11D809336
:10011000020190930301A0930401B0930501809123
:1001200006019DE6980F9D3718F49093060116C0BE
:100130008051809306018091020190910301A0916A
:100140000401B09105010196A11DB11D809302012A
:1001500090930301A0930401B0930501BF91AF9167
:100160009F918F910F900FBE0F901F9018950F9336
:100170001F930097C9F0AC014150510960E070E055
:1001800080E090E08A019B010027012B022B032BCA
:1001900031F076956795579547950196F3CF982F4F
:1001A0008827842B952B02C080E090E01F910F914F
:1001B0000895CF93DF93D82FC62F809100010E941E
:1001C000610A8D2F0E94C10A8C2F0E94C10ADF9103
:1001D000CF910C94B50A1F93CF93DF93182FEB01A7
:1001E000809100010E94610A812F0E94C10A8D2F17
:1001F0000E94C10A8C2F0E94C10ADF91CF911F91EA
:100200000C94B50AFF920F931F93CF93DF93F82EB0
:10021000EA01162F072F809100010E94610A8F2D9D
:100220000E94C10A802F0E94C10A812F0E94C10A28
:100230008D2F0E94C10A8C2F0E94C10ADF91CF919D
:100240001F910F91FF900C94B50ACF93C82F809106
:1002500000010E94610A8C2F0E94C10A8091000156
:1002600081600E94B30A0E94E90AC82F0E94B50A61
:100270008C2FCF910895CF93DF93C82F80910001E9
:100280000E94610A8C2F0E94C10A80910001816046
:100290000E94B30A0E94D90AC82FD0E0DC2FCC27D5
:1002A0000E94E90AC82B0E94B50ACE01DF91CF91C6
:1002B0000895CF92DF92EF92FF92CF93C82F809153
:1002C00000010E94610A8C2F0E94C10A80910001E6
:1002D00081600E94B30A0E94D90AC82ED12CE12C59
:1002E000F12CFC2CEE24DD24CC240E94D90AE82A2F
:1002F0000E94D90AC82F0E94E90AC82ADC2A0E9453
:10030000B50AC701B601CF91FF90EF90DF90CF9073
:100310000895FF920F931F93CF93DF93182FF62E1C
:10032000D72FC42F809100010E94610A812F0E9463
:10033000C10A0F2D1D2FCC2339F0F80181918F01B7
:100340000E94C10AC150F7CFDF91CF911F910F9149
:10035000FF900C94B50AFF920F931F93CF93DF93F6
:10036000C82FF62E072F142F809100010E94610ADA
:100370008C2F0E94C10A8091000181600E94B30A03
:10038000CF2DD02F112359F0123018F00E94D90A26
:1003900002C00E94E90A888311502196F3CFDF91B1
:1003A000CF911F910F91FF900C94B50ACF93C82F56
:1003B000682F66958AE80E94D900C0930001CF910A
:1003C0000895809100010895CF92DF92EF92FF92FD
:1003D0006B017C0120E030E0A9010E94140C87FD34
:1003E00019C028EB3EEF4FEF53E4C701B6010E945E
:1003F000D20C18167CF020E030E040E053E4C70156
:10040000B6010E94D70C0E94190C84E40E94EB00F4
:1004100081E001C080E0FF90EF90DF90CF900895E1
:1004200084E40E943B01BC0180E090E00E94480C03
:1004300020E030E040E05CE30E94D70C0895009794
:1004400011F480E503C0019731F480E70E94250193
:100450008F5F880F08958FEF0895CF92DF92EF920C
:10046000FF926B017C0161E080E80E94D90061E0AD
:100470008FEF0E94D90060E080E00E94D900609177
:100480000C0181E90E94D90061E080E00E94D9005E
:1004900060E08FEF0E94D90060E080E80E94D90000
:1004A000C114D104E104F10499F088EF0E943B01EA
:1004B000009739F0DC01A70196010E94F20B6B0155
:1004C0007C01B701A60184E00E94020164E001C042
:1004D00062E080E0FF90EF90DF90CF900C94D90025
:1004E00061E080E00E94D90061E08FEF0E94D900B6
:1004F00060E080E00E94D90060E081E90E94D900BC
:1005000061E080E00E94D90060E08FEF0C94D90098
:10051000EF92FF920F931F93CF93DF93CDB7DEB788
:100520002C970FB6F894DEBF0FBECDBF7C010E94A2
:10053000670070930B0160930A0183E10E9425011B
:100540008770D9F48091080190910901892BA9F352
:100550000E94670020910A0130910B01621B730B0E
:1005600080910801909109018617970730F781E083
:10057000809307018FEF9FEF36C0E114F10429F457
:100580008EE10E943B018C0129C04CE0BE016F5FEF
:100590007F4F84E10E94AB0189818695869586957F
:1005A000F70180878B819C819827892798279783DB
:1005B00086838F81988598278927982793838283BC
:1005C00089859A85982789279827958384830B8521
:1005D0001C851027012710271183008361E08BE021
:1005E0000E94D900C8012C960FB6F894DEBF0FBE4A
:1005F000CDBFDF91CF911F910F91FF90EF900895A4
:10060000CF93DF93EC0161E080E80E94D90061E0C4
:100610008FEF0E94D90060E080E00E94D9006091D5
:100620000C0181E90E94D90061E080E00E94D900BC
:1006300060E08FEF0E94D90060E080E80E94D9005E
:1006400061E080E00E94D9000E94670070930B0176
:1006500060930A0180E00E94250180FF1DC0809107
:10066000080190910901892BA9F30E94670020914C
:100670000A0130910B01621B730B8091080190916C
:1006800009018617970730F781E0809307018FEF04
:100690009FEFDF91CF910895CE01DF91CF910C9420
:1006A0008802809107011092070108959093090133
:1006B000809308010895809108019091090108959F
:1006C000EF92FF920F931F93CF937C018B0161E018
:1006D00080E80E94D90061E08FEF0E94D90060E0BD
:1006E00080E00E94D90066E08FEF0E94D90083E885
:1006F0000E942501682F646083E80E94D90067E0AA
:100700008FEF0E94D90061E081E80E94D90061E08A
:1007100080E80E94D9006BE684E90E94D90060E07D
:1007200083E80E94D9000E94670070930B016093D8
:100730000A0183E80E942501C82F811116C080910B
:10074000080190910901892BA1F30E946700209173
:100750000A0130910B01621B730B8091080190918B
:1007600009018617970728F731C061E083E80E94E6
:10077000D90082E90E942501982F9F77F701908385
:10078000881F8827881FF801808360E081E80E9425
:10079000D90066E08FEF0E94D90083E80E9425010E
:1007A000682F6B7F83E80E94D90061E08FEF0E9481
:1007B000D90061E080E00E94D90060E08FEF0E94E4
:1007C000D90060E080E80E94D900C1E08C2FCF9171
:1007D0001F910F91FF90EF900895CF93DF93EC015D
:1007E00081E00E94250184FB992790F9988383FB7F
:1007F000992790F99A8382FB992790F9998386FB30
:10080000992790F99B83881F8827881F8C83DF9105
:10081000CF9108952F923F924F925F926F927F9265
:100820008F929F92AF92BF92CF92DF92EF92FF9200
:100830000F931F93CF93DF9300D000D000D0CDB79C
:10084000DEB71C017E836D8380E090E00E941F0272
:1008500090E0ED81FE819183808386E40E942501F2
:10086000682E712CFFEF6F1A7F0AED81FE81758271
:100870006482A081B0E020E03FE24AE350E00E94C1
:10088000F20B4B015C01F4EF8F0EF1E09F1EA11CF7
:10089000B11C98EEC92E93E0D92EE12CF12CC501A4
:1008A000B401A70196010E94CA0BD3010E94FD0B5F
:1008B00069837A838B839C8320ED422E27E0522E1E
:1008C000612C712CC501B401A30192010E94CA0BD5
:1008D00069817A818B819C81620F731F841F951FB0
:1008E000A70196010E94CA0BED81FE812287338702
:1008F0004487558781E50E943B018C01112702C086
:10090000000F111F9A95E2F70F5F1F4FED81FE81D7
:1009100017830683A081B0E020E03FE24AE350E085
:100920000E94F20B4B015C01F4EF8F0EF1E09F1E71
:10093000A11CB11CC501B401A70196010E94CA0BFC
:10094000D8010E94F20B69837A838B839C83C50153
:10095000B401A30192010E94CA0B69817A818B8143
:100960009C81620F731F841F951FA70196010E942F
:10097000CA0BED81FE8126873787408B518B80E73C
:100980000E9425018F5F880F90E0ED81FE819383A7
:10099000828381E70E943B019C01992702C0880F56
:1009A000991F3A95E2F70196ED81FE819187808744
:1009B000F1012381222341F0ED81FE8126813781DF
:1009C000821B930B91878087ED81FE81A281B0E02D
:1009D00020E03FE24AE350E00E94F20B6B017C0111
:1009E000F4EFCF0EF1E0DF1EE11CF11C88EE882E43
:1009F00083E0982EA12CB12CC701B601A50194016A
:100A00000E94CA0BED81FE81A085B1850E94F20B88
:100A10002B013C01C701B60120ED37E040E050E07A
:100A20000E94CA0BC301B201620F731F841F951F7E
:100A3000A50194010E94CA0BED81FE81228B338BAC
:100A4000448B558B26960FB6F894DEBF0FBECDBFF4
:100A5000DF91CF911F910F91FF90EF90DF90CF909A
:100A6000BF90AF909F908F907F906F905F904F90CE
:100A70003F902F9008954F925F926F927F928F9246
:100A80009F92AF92BF92CF92DF92EF92FF921F930D
:100A9000CF93DF93CDB7DEB76B970FB6F894DEBF79
:100AA0000FBECDBF60322EE472078105910508F4B8
:100AB000A8C06B017C01CE0147960E94ED03BE01E8
:100AC0006F5F7F4FCE0147960E940A048F8988236B
:100AD00049F08B859C85AD85BE858A5C944FAF4F70
:100AE000BF4F04C088EE98E0A0E0B0E0298D22233B
:100AF00069F04B855C856D857E854E545D4F6F4FEB
:100B00007F4F440F551F661F771F0BC0288D222370
:100B100061F04B855C856D857E854C565D4F6F4FD2
:100B20007F4F840F951FA61FB71F1A8D112361F0E9
:100B30004F85588969897A894C565D4F6F4F7F4F31
:100B4000840F951FA61FB71F2B8D222309F457C0B2
:100B50002C013D0126E2420E22E0521E611C711C56
:100B6000C414D504E604F70408F44BC0AB81B0E02C
:100B700020E03FE24AE350E00E94F20B4B015C01AF
:100B800024EF820E21E0921EA11CB11CA701960148
:100B90002419350946095709A8EEB3E00E94F20B63
:100BA0002B013C01C501B40120ED37E040E050E0ED
:100BB0000E94CA0B420E531E641E751EC501B4016D
:100BC00028EE33E040E050E00E94CA0BC301B201BE
:100BD0000E94CA0BC901112321F08F819885820FD1
:100BE000931F0E94B700BC0181E70E94EB00C092F6
:100BF0000D01D0920E01E0920F01F092100181E000
:100C000001C080E06B960FB6F894DEBF0FBECDBF7B
:100C1000DF91CF911F91FF90EF90DF90CF90BF9029
:100C2000AF909F908F907F906F905F904F900895BE
:100C30000F931F93CF93DF93CDB7DEB76B970FB6AC
:100C4000F894DEBF0FBECDBFCE0147960E94ED03E4
:100C5000BE016F5F7F4FCE0147960E940A048F89C5
:100C6000882359F08B859C85AD85BE85BC01CD015F
:100C70006C57724F8F4F9F4F04C066E37BE080E05C
:100C800090E0298D222369F00B851C852D853E85FA
:100C90000E541D4F2F4F3F4F000F111F221F331FA8
:100CA0000BC0288D222361F00B851C852D853E8588
:100CB0000C561D4F2F4F3F4F600F711F821F931F08
:100CC0002A8D222361F00F85188929893A890C56CB
:100CD0001D4F2F4F3F4F600F711F821F931F2B8D92
:100CE000222361F00B891C892D893E890A5D1D4FE5
:100CF0002F4F3F4F600F711F821F931F60930D0195
:100D000070930E0180930F01909310016B960FB6B4
:100D1000F894DEBF0FBECDBFDF91CF911F910F9131
:100D20000895CF93682F616080E00E94D9000E94EF
:100D3000670070930B0160930A0183E10E94250113
:100D4000C82FC770B1F48091080190910901892BD7
:100D5000A1F30E94670020910A0130910B01621BF0
:100D6000730B80910801909109018617970728F766
:100D700009C061E08BE00E94D90060E080E00E9441
:100D8000D900C1E08C2FCF910895CF93DF93CDB7D9
:100D9000DEB728970FB6F894DEBF0FBECDBF88230D
:100DA00041F089E80E942501682F616089E80E946E
:100DB000D90060E088E80E94D90061E080E80E94E4
:100DC000D90061E08FEF0E94D90060E080E00E94CE
:100DD000D90081E90E94250180930C0161E080E047
:100DE0000E94D90060E08FEF0E94D90060E080E8A7
:100DF0000E94D90080E60E942501682F626180E68A
:100E00000E94D90060E270E084E40E94EB006FEF82
:100E100081E00E94D900BE01695F7F4FCE01089634
:100E20000E946003811102C080E0D4C146E0BE018F
:100E30006F5F7F4F80EB0E94AB0161E08FEF0E94FC
:100E4000D90060E08FE40E94D9006CE28EE40E9439
:100E5000D90060E08FEF0E94D90064EB86EB0E941E
:100E6000D9008F81811102C040E001C04CE0A8850B
:100E700080E090E061E070E0282F26952695269589
:100E8000582F5770E1E0F0E0EC0FFD1FE20FF11D6D
:100E9000841710F0A9130AC09B0101C0220F5A95B4
:100EA000EAF7209530812323208309C0208130E098
:100EB00002C0359527955A95E2F720FD9F5F8F5F19
:100EC0008033D1F646E0BE016F5F7F4F80EB0E941A
:100ED000890161E08FEF0E94D90060E080E00E940C
:100EE000D90060E08FEF0E94D90060E089E00E94A5
:100EF000D90060E080E10E94D90060E081E10E94B9
:100F0000D90061E084E20E94D9006FEF85E20E947F
:100F1000D90060E085E70E94D90061E08FEF0E9470
:100F2000D9006CE28EE40E94D90060E088E40E945F
:100F3000D90060E280E30E94D90060E08FEF0E9458
:100F4000D90069E080E30E94D90060E084E50E9456
:100F5000D90064E081E30E94D90063E082E30E944B
:100F6000D90063E880E40E94D90065E286E40E942B
:100F7000D90060E080E60E94D90060E087E20E942C
:100F8000D90066E080E50E94D90060E081E50E941A
:100F9000D90066E982E50E94D90068E086E50E94F2
:100FA000D90060E387E50E94D90060E081E60E94F5
:100FB000D90060E082E60E94D90060E084E60E94E9
:100FC000D90060E085E60E94D90060EA86E60E94CA
:100FD000D90061E08FEF0E94D90062E382E20E94B3
:100FE000D90064E187E40E94D9006FEF89E40E9490
:100FF000D90060E08AE40E94D90060E08FEF0E948F
:10100000D9006AE08AE70E94D90060E08BE70E947D
:10101000D90061E288E70E94D90061E08FEF0E9469
:10102000D90064E383E20E94D90060E082E40E9478
:10103000D9006FEF84E40E94D90066E285E40E9443
:10104000D90065E086E40E94D90060E480E40E9453
:10105000D90066E08EE00E94D9006AE180E20E9439
:10106000D90060E483E40E94D90060E08FEF0E9421
:10107000D90063E084E30E94D90064E485E30E9420
:10108000D90061E08FEF0E94D90064E081E30E9403
:10109000D90069E08BE40E94D90065E08CE40E94ED
:1010A000D90064E08DE40E94D90060E08FEF0E94D7
:1010B000D90060E084E40E94D90060E285E40E94E7
:1010C000D90068E087E40E94D90068E288E40E94C1
:1010D000D90060E087E60E94D90064E080E70E94C2
:1010E000D90061E081E70E94D9006EEF82E70E949B
:1010F000D90060E086E70E94D90060E087E70E949F
:10110000D90061E08FEF0E94D90061E08DE00E947C
:10111000D90060E08FEF0E94D90061E080E80E9472
:10112000D90068EF81E00E94D90061E08FEF0E9452
:10113000D90061E08EE80E94D90061E080E00E9461
:10114000D90060E08FEF0E94D90060E080E80E9443
:10115000D90064E08AE00E94D90084E80E94250159
:10116000682F6F7E84E80E94D90061E08BE00E94C6
:10117000D9000E94180660930D0170930E018093B0
:101180000F019093100168EE81E00E94D9006091F8
:101190000D0170910E0180910F01909110010E943C
:1011A0003B0561E081E00E94D90080E40E94910645
:1011B000882309F439CE62E081E00E94D90080E002
:1011C0000E949106882309F42FCE68EE81E00E94E8
:1011D000D90081E028960FB6F894DEBF0FBECDBFD0
:1011E000DF91CF9108958F929F92AF92BF92CF924D
:1011F000DF92EF92FF921F93CF93DF93CDB7DEB7CD
:101200006B970FB6F894DEBF0FBECDBF6C01162FE3
:10121000F62EF694FA94CE0147960E94ED03BE0195
:101220006F5F7F4FCE0147960E940A04C114D1041C
:1012300009F072C01E3069F028F41C3009F028C192
:1012400068E10AC0103139F0123109F021C160E5BE
:1012500003C060E301C060E487E50E94D90068E054
:1012600086E50E94D9006F2D80E50E94D900A12F4C
:10127000B0E020E03FE24AE350E00E94F20B6B0155
:101280007C0124EFC20E21E0D21EE11CF11CC7013B
:10129000B60128EE33E040E050E00E94CA0B49015D
:1012A0005A01C701B60120ED37E040E050E00E944E
:1012B000CA0B69017A012F85388949895A89A8EEB4
:1012C000B3E00E94F20B6C0D7D1D8E1D9F1DA501CC
:1012D00094010E94CA0BC9010E94B700BC0181E5BC
:1012E0000E94EB002B853C854D855E85A8EEB3E022
:1012F0000E94F20B6C0D7D1D8E1D9F1DA50194019A
:101300000E94CA0B6FEF213081E0380708F4620FAA
:1013100086E40E94D900A1C0CA94CD2809F0B8C0C3
:101320001A3069F1C8F4183009F0B2C060E188E4FD
:101330000E94D90068E087E40E94D90062E082E35D
:101340000E94D9006CE080E30E94D90061E08FEF39
:101350000E94D90060E336C01C30F9F01E3009F05D
:1013600097C068E488E40E94D90068E087E40E949E
:10137000D90063E082E30E94D90067E01BC068E205
:1013800088E40E94D90068E087E40E94D90063E005
:1013900082E30E94D90069E00DC068E388E40E94FE
:1013A000D90068E087E40E94D90063E082E30E94EC
:1013B000D90068E080E30E94D90061E08FEF0E94CD
:1013C000D90060E280E30E94D90060E08FEF0E94C4
:1013D000D9006F2D80E70E94D900A12FB0E020E056
:1013E0003FE24AE350E00E94F20B6B017C0124EFE4
:1013F000C20E21E0D21EE11CF11C2B893C894D89D3
:101400005E89A8EEB3E00E94F20B4B015C01C701BC
:10141000B60120ED37E040E050E00E94CA0B820E9A
:10142000931EA41EB51EC701B60128EE33E040E0AE
:1014300050E00E94CA0BC501B4010E94CA0BC90149
:101440006A8D662321F08F819885820F931F0E94F9
:10145000B700BC0181E70E94EB0060910D01709123
:101460000E0180910F01909110010E943B0581E0D7
:101470000E942501182F62E081E00E94D90080E0DF
:101480000E949106612F81E00E94D90081E001C095
:1014900080E06B960FB6F894DEBF0FBECDBFDF9134
:1014A000CF911F91FF90EF90DF90CF90BF90AF90C2
:1014B0009F908F9008951092B9008CE08093B800AF
:1014C000089594EA9093BC002FEF3FEF215031092B
:1014D00059F09091BC0097FFF9CF9091B900987F97
:1014E000983021F0903111F081E008958093BB0095
:1014F00084E88093BC008FEF9FEF0197A9F32091C0
:10150000BC0027FFFACF8091B900887F883111F0A5
:10151000803451F780E0089524EA34E844E92093C8
:10152000BC009091BC0097FFFCCF9091B900987FD0
:10153000983011F0903199F78093BB003093BC0044
:101540009091BC0097FFFCCF9091B900987F9032AA
:1015500011F0983539F44093BC009091BC0094FD93
:10156000FCCFDDCF08950C94610A84E98093BC0020
:101570008FEF9FEF019721F02091BC0024FDFACF5F
:1015800008958093BB0084E88093BC008FEF9FEFA9
:10159000019729F02091BC0027FD03C0F9CF81E01D
:1015A00008959091B900987F81E0983209F480E025
:1015B000089584EC8093BC008FEF9FEF019739F082
:1015C0002091BC0027FFFACF8091BB00089580E0F6
:1015D000089584E88093BC008FEF9FEF019739F066
:1015E0002091BC0027FFFACF8091BB00089580E0D6
:1015F0000895CF93C0E08C2F880F0E94610A0E944B
:10160000B50ACF5FC038B9F7CF91089525B12363EC
:1016100025B92BB11BB86B30710528F5FB01EC5CCB
:10162000FF4F0C94EC0B2BB12C6F02C02BB120663A
:101630002BB919C02BB12A6DFBCF2BB1226FF8CF7C
:101640002BB12662F5CF2BB1266BF2CF2BB12E6BCF
:10165000EFCF2BB1206EECCF2BB12E6FE9CF2BB19A
:10166000266FE6CF589A8230910561F024F40197F5
:1016700061F428980AC08330910531F0049729F469
:101680002D9803C0299801C02C984130510509F4C8
:10169000589A8FE79EE30197F1F700C00000089584
:1016A0000E945B0A0E945E0078948AB18FEF8AB92B
:1016B00084B1836384B981E00E94C50660E177E26A
:1016C00080E090E00E943B05CAE0D0E084E6E82E8E
:1016D000F12C08EE13E081E191E00E94000380917B
:1016E000110190911201BE010E94B60B40E050E042
:1016F000BC0181E090E00E94060B80911101909165
:101700001201BE010E94B60BCB01BE010E94B60BB6
:1017100040E050E0BC0182E090E00E94060B809126
:10172000110190911201B7010E94B60BCB01BE01CD
:101730000E94B60B40E050E0BC0183E090E00E94C4
:10174000060B8091110190911201B8010E94B60B15
:10175000CB01BE010E94B60B40E050E0BC0184E02A
:1017600090E00E94060B0E945103B5CFAA1BBB1B41
:1017700051E107C0AA1FBB1FA617B70710F0A61B91
:10178000B70B881F991F5A95A9F780959095BC01B2
:10179000CD010895A1E21A2EAA1BBB1BFD010DC0AD
:1017A000AA1FBB1FEE1FFF1FA217B307E407F50711
:1017B00020F0A21BB30BE40BF50B661F771F881FED
:1017C000991F1A9469F760957095809590959B0183
:1017D000AC01BD01CF010895EE0FFF1F0590F491FC
:1017E000E02D09940E94050CA59F900DB49F900DCB
:1017F000A49F800D911D11240895B7FF0C94F20B46
:101800000E94F20B821B930B0895A29FB001B39F1D
:10181000C001A39F700D811D1124911DB29F700DF9
:10182000811D1124911D08950E94850C08F481E00A
:1018300008950E94B10C88F09F5798F0B92F99270E
:10184000B751B0F0E1F0660F771F881F991F1AF0AB
:10185000BA95C9F714C0B13091F00E94CB0CB1E039
:1018600008950C94CB0C672F782F8827B85F39F038
:10187000B93FCCF3869577956795B395D9F73EF444
:1018800090958095709561957F4F8F4F9F4F0895EC
:10189000E89409C097FB3EF490958095709561950A
:1018A0007F4F8F4F9F4F9923A9F0F92F96E9BB27C0
:1018B0009395F695879577956795B795F111F8CF3C
:1018C000FAF4BB0F11F460FF1BC06F5F7F4F8F4FA7
:1018D0009F4F16C0882311F096E911C0772321F09D
:1018E0009EE8872F762F05C0662371F096E8862F35
:1018F00070E060E02AF09A95660F771F881FDAF78C
:10190000880F9695879597F90895990F0008550FB8
:10191000AA0BE0E8FEEF16161706E807F907C0F075
:1019200012161306E407F50798F0621B730B840B7D
:10193000950B39F40A2661F0232B242B252B21F457
:1019400008950A2609F4A140A6958FEF811D811DF7
:10195000089557FD9058440F551F59F05F3F71F09F
:101960004795880F97FB991F61F09F3F79F0879506
:101970000895121613061406551FF2CF4695F1DF8F
:1019800008C0161617061806991FF1CF869571051F
:10199000610508940895E894BB2766277727CB0153
:1019A00097F908950E94850C08F48FEF08950E941E
:1019B000EA0C0C945B0D0E944D0D38F00E94540D02
:1019C00020F0952311F00C94440D0C944A0D112431
:1019D0000C94CC0C0E94A90C70F3959FC1F3950F49
:1019E00050E0551F629FF001729FBB27F00DB11DA3
:1019F000639FAA27F00DB11DAA1F649F6627B00D33
:101A0000A11D661F829F2227B00DA11D621F739F1B
:101A1000B00DA11D621F839FA00D611D221F749F29
:101A20003327A00D611D231F849F600D211D822F70
:101A3000762F6A2F11249F5750409AF0F1F0882397
:101A40004AF0EE0FFF1FBB1F661F771F881F9150C4
:101A50005040A9F79E3F510580F00C94440D0C9422
:101A6000CC0C5F3FE4F3983ED4F386957795679569
:101A7000B795F795E7959F5FC1F7FE2B880F911DEE
:101A80009695879597F9089597F99F6780E870E094
:101A900060E008959FEF80EC089500240A941616E4
:101AA000170618060906089500240A94121613064C
:101AB000140605060895092E0394000C11F48823DA
:101AC00052F0BB0F40F4BF2B11F460FF04C06F5FF6
:0C1AD0007F4F8F4F9F4F0895F894FFCF79
:021ADC005200B6
:00000001FF
