:100000000C943F000C945C000C945C000C945C001D
:100010000C945C000C945C000C945C000C945C00F0
:100020000C945C000C945C000C945C000C94030B2E
:100030000C945C000C945C000C9470000C945C00BC
:100040000C945C000C945C000C945C000C945C00C0
:100050000C945C000C945C000C945C000C945C00B0
:100060000C945C000C945C00AC0BAF0BB30BB60BA8
:10007000B90BBC0BBF0BC20BC50BC80BCB0B1124B0
:100080001FBECFEFD8E0DEBFCDBF11E0A0E0B1E0F2
:10009000E0E9FCE102C005900D92A230B107D9F76A
:1000A00021E0A2E0B1E001C01D92AB31B207E1F75F
:1000B0000E941A0C0C94460E0C94000082E084BD41
:1000C00095E095BD9AE797BD80936E000895609185
:1000D000020170910301809104019091050108953E
:1000E0001F920F920FB60F9211248F939F93AF938D
:1000F000BF938091020190910301A0910401B091FE
:1001000005010796A11DB11D809302019093030183
:10011000A0930401B0930501809106019DE6980F1C
:100120009D3718F49093060116C080518093060104
:100130008091020190910301A0910401B091050109
:100140000196A11DB11D8093020190930301A0931C
:100150000401B0930501BF91AF919F918F910F90D2
:100160000FBE0F901F9018950F931F930097C9F023
:10017000AC014150510960E070E080E090E08A01FC
:100180009B010027012B022B032B31F076956795FD
:10019000579547950196F3CF982F8827842B952B59
:1001A00002C080E090E01F910F910895CF93DF93FC
:1001B000D82FC62F809100010E945E0A8D2F0E94C9
:1001C000BE0A8C2F0E94BE0ADF91CF910C94B20A16
:1001D0001F93CF93DF93182FEB01809100010E94B2
:1001E0005E0A812F0E94BE0A8D2F0E94BE0A8C2FAC
:1001F0000E94BE0ADF91CF911F910C94B20AFF9228
:100200000F931F93CF93DF93F82EEA01162F072F3A
:10021000809100010E945E0A8F2D0E94BE0A802FED
:100220000E94BE0A812F0E94BE0A8D2F0E94BE0A24
:100230008C2F0E94BE0ADF91CF911F910F91FF90EA
:100240000C94B20ACF93C82F809100010E945E0ADD
:100250008C2F0E94BE0A8091000181600E94B00A2A
:100260000E94E60AC82F0E94B20A8C2FCF910895EF
:10027000CF93DF93C82F809100010E945E0A8C2FDC
:100280000E94BE0A8091000181600E94B00A0E9413
:10029000D60AC82FD0E0DC2FCC270E94E60AC82B54
:1002A0000E94B20ACE01DF91CF910895CF92DF92E2
:1002B000EF92FF92CF93C82F809100010E945E0AB7
:1002C0008C2F0E94BE0A8091000181600E94B00ABA
:1002D0000E94D60AC82ED12CE12CF12CFC2CEE2445
:1002E000DD24CC240E94D60AE82A0E94D60AC82F10
:1002F0000E94E60AC82ADC2A0E94B20AC701B60197
:10030000CF91FF90EF90DF90CF900895FF920F93E1
:100310001F93CF93DF93182FF62ED72FC42F8091E2
:1003200000010E945E0A812F0E94BE0A0F2D1D2F20
:10033000CC2339F0F80181918F010E94BE0AC1508F
:10034000F7CFDF91CF911F910F91FF900C94B20ADC
:10035000FF920F931F93CF93DF93C82FF62E072F93
:10036000142F809100010E945E0A8C2F0E94BE0A09
:100370008091000181600E94B00ACF2DD02F1123FF
:1003800059F0123018F00E94D60A02C00E94E60A04
:10039000888311502196F3CFDF91CF911F910F9158
:1003A000FF900C94B20ACF93C82F682F66958AE805
:1003B0000E94D600C0930001CF9108958091000162
:1003C0000895CF92DF92EF92FF926B017C0120E0C3
:1003D00030E0A9010E94EE0C87FD19C028EB3EEF2A
:1003E0004FEF53E4C701B6010E94AC0D18167CF024
:1003F00020E030E040E053E4C701B6010E94B10DB7
:100400000E94F30C84E40E94E80081E001C080E0D7
:10041000FF90EF90DF90CF90089584E40E94380120
:10042000BC0180E090E00E94220D20E030E040E03E
:100430005CE30E94B10D0895009711F480E503C0BC
:10044000019731F480E70E9422018F5F880F0895A1
:100450008FEF0895CF92DF92EF92FF926B017C01B4
:1004600061E080E80E94D60061E08FEF0E94D60034
:1004700060E080E00E94D6006091160181E90E9450
:10048000D60061E080E00E94D60060E08FEF0E941D
:10049000D60060E080E80E94D600C114D104E104D7
:1004A000F10499F088EF0E943801009739F0DC01DF
:1004B000A70196010E94CC0C6B017C01B701A6013B
:1004C00084E00E94FF0064E001C062E080E0FF90F1
:1004D000EF90DF90CF900C94D60061E080E00E9416
:1004E000D60061E08FEF0E94D60060E080E00E94BD
:1004F000D60060E081E90E94D60061E080E00E94C1
:10050000D60060E08FEF0C94D600EF92FF920F932D
:100510001F93CF93DF93CDB7DEB72C970FB6F89428
:10052000DEBF0FBECDBF7C010E9467007093150136
:100530006093140183E10E9422018770D9F48091B5
:10054000080190910901892BA9F30E94670020916D
:10055000140130911501621B730B80910801909179
:1005600009018617970730F781E0809307018FEF25
:100570009FEF36C0E114F10429F48EE10E943801A6
:100580008C0129C04CE0BE016F5F7F4F84E10E9467
:10059000A8018981869586958695F70180878B814C
:1005A0009C81982789279827978386838F819885B0
:1005B0009827892798279383828389859A85982706
:1005C00089279827958384830B851C85102701270D
:1005D00010271183008361E08BE00E94D600C801E0
:1005E0002C960FB6F894DEBF0FBECDBFDF91CF9132
:1005F0001F910F91FF90EF900895CF93DF93EC013F
:1006000061E080E80E94D60061E08FEF0E94D60092
:1006100060E080E00E94D6006091160181E90E94AE
:10062000D60061E080E00E94D60060E08FEF0E947B
:10063000D60060E080E80E94D60061E080E00E9481
:10064000D6000E946700709315016093140180E04A
:100650000E94220180FF1DC0809108019091090134
:10066000892BA9F30E946700209114013091150194
:10067000621B730B809108019091090186179707FF
:1006800030F781E0809307018FEF9FEFDF91CF91EB
:100690000895CE01DF91CF910C94850280910701DE
:1006A000109207010895909309018093080108951D
:1006B00080910801909109010895EF92FF920F93A4
:1006C0001F93CF937C018B0161E080E80E94D600EC
:1006D00061E08FEF0E94D60060E080E00E94D600CB
:1006E00066E08FEF0E94D60083E80E942201682F07
:1006F000646083E80E94D60067E08FEF0E94D60016
:1007000061E081E80E94D60061E080E80E94D600A6
:100710006BE684E90E94D60060E083E80E94D60080
:100720000E946700709315016093140183E80E9492
:100730002201C82F811116C08091080190910901F2
:10074000892BA1F30E9467002091140130911501BB
:10075000621B730B8091080190910901861797071E
:1007600028F731C061E083E80E94D60082E90E9448
:100770002201982F9F77F7019083881F8827881F71
:10078000F801808360E081E80E94D60066E08FEF88
:100790000E94D60083E80E942201682F6B7F83E8C5
:1007A0000E94D60061E08FEF0E94D60061E080E0F9
:1007B0000E94D60060E08FEF0E94D60060E080E8E3
:1007C0000E94D600C1E08C2FCF911F910F91FF9016
:1007D000EF900895CF93DF93EC0181E00E94220116
:1007E00084FB992790F9988383FB992790F99A8342
:1007F00082FB992790F9998386FB992790F99B832F
:10080000881F8827881F8C83DF91CF9108952F92AE
:100810003F924F925F926F927F928F929F92AF9290
:10082000BF92CF92DF92EF92FF920F931F93CF93DD
:10083000DF9300D000D000D0CDB7DEB71C017E839F
:100840006D8380E090E00E941C0290E0ED81FE81CB
:100850009183808386E40E942201682E712CFFEF31
:100860006F1A7F0AED81FE8175826482A081B0E0FB
:1008700020E03FE24AE350E00E94CC0C4B015C01D7
:10088000F4EF8F0EF1E09F1EA11CB11C98EEC92E53
:1008900093E0D92EE12CF12CC501B401A7019601FA
:1008A0000E94A40CD3010E94D70C69837A838B83A6
:1008B0009C8320ED422E27E0522E612C712CC50125
:1008C000B401A30192010E94A40C69817A818B81F9
:1008D0009C81620F731F841F951FA70196010E94C0
:1008E000A40CED81FE81228733874487558781E5FB
:1008F0000E9438018C01112702C0000F111F9A9528
:10090000E2F70F5F1F4FED81FE8117830683A08101
:10091000B0E020E03FE24AE350E00E94CC0C4B0103
:100920005C01F4EF8F0EF1E09F1EA11CB11CC5010C
:10093000B401A70196010E94A40CD8010E94CC0C1E
:1009400069837A838B839C83C501B401A3019201DF
:100950000E94A40C69817A818B819C81620F731F34
:10096000841F951FA70196010E94A40CED81FE81B2
:1009700026873787408B518B80E70E9422018F5F4B
:10098000880F90E0ED81FE819383828381E70E944E
:1009900038019C01992702C0880F991F3A95E2F708
:1009A0000196ED81FE8191878087F10123812223C9
:1009B00041F0ED81FE8126813781821B930B918767
:1009C0008087ED81FE81A281B0E020E03FE24AE332
:1009D00050E00E94CC0C6B017C01F4EFCF0EF1E0F3
:1009E000DF1EE11CF11C88EE882E83E0982EA12CDE
:1009F000B12CC701B601A50194010E94A40CED81A0
:100A0000FE81A085B1850E94CC0C2B013C01C70161
:100A1000B60120ED37E040E050E00E94A40CC30195
:100A2000B201620F731F841F951FA50194010E94DC
:100A3000A40CED81FE81228B338B448B558B269643
:100A40000FB6F894DEBF0FBECDBFDF91CF911F91DF
:100A50000F91FF90EF90DF90CF90BF90AF909F905D
:100A60008F907F906F905F904F903F902F90089560
:100A70004F925F926F927F928F929F92AF92BF92AE
:100A8000CF92DF92EF92FF921F93CF93DF93CDB778
:100A9000DEB76B970FB6F894DEBF0FBECDBF6032E6
:100AA0002EE472078105910508F4A8C06B017C0152
:100AB000CE0147960E94EA03BE016F5F7F4FCE01D1
:100AC00047960E9407048F89882349F08B859C856F
:100AD000AD85BE858A5C944FAF4FBF4F04C088EE92
:100AE00098E0A0E0B0E0298D222369F04B855C8579
:100AF0006D857E854E545D4F6F4F7F4F440F551F60
:100B0000661F771F0BC0288D222361F04B855C8503
:100B10006D857E854C565D4F6F4F7F4F840F951FBF
:100B2000A61FB71F1A8D112361F04F855889698957
:100B30007A894C565D4F6F4F7F4F840F951FA61FCC
:100B4000B71F2B8D222309F457C02C013D0126E24B
:100B5000420E22E0521E611C711CC414D504E6042E
:100B6000F70408F44BC0AB81B0E020E03FE24AE379
:100B700050E00E94CC0C4B015C0124EF820E21E07E
:100B8000921EA11CB11CA701960124193509460922
:100B90005709A8EEB3E00E94CC0C2B013C01C50123
:100BA000B40120ED37E040E050E00E94A40C420E7A
:100BB000531E641E751EC501B40128EE33E040E0EB
:100BC00050E00E94A40CC301B2010E94A40CC90110
:100BD000112321F08F819885820F931F0E94B4000A
:100BE000BC0181E70E94E800C0921701D092180171
:100BF000E0921901F0921A0181E001C080E06B9649
:100C00000FB6F894DEBF0FBECDBFDF91CF911F911D
:100C1000FF90EF90DF90CF90BF90AF909F908F901C
:100C20007F906F905F904F9008950F931F93CF9395
:100C3000DF93CDB7DEB76B970FB6F894DEBF0FBE6C
:100C4000CDBFCE0147960E94EA03BE016F5F7F4F82
:100C5000CE0147960E9407048F89882359F08B851F
:100C60009C85AD85BE85BC01CD016C57724F8F4F01
:100C70009F4F04C066E37BE080E090E0298D222353
:100C800069F00B851C852D853E850E541D4F2F4F19
:100C90003F4F000F111F221F331F0BC0288D22232F
:100CA00061F00B851C852D853E850C561D4F2F4F01
:100CB0003F4F600F711F821F931F2A8D222361F007
:100CC0000F85188929893A890C561D4F2F4F3F4FA0
:100CD000600F711F821F931F2B8D222361F00B89E0
:100CE0001C892D893E890A5D1D4F2F4F3F4F600F94
:100CF000711F821F931F60931701709318018093D7
:100D0000190190931A016B960FB6F894DEBF0FBECF
:100D1000CDBFDF91CF911F910F910895CF93682F91
:100D2000616080E00E94D6000E9467007093150108
:100D30006093140183E10E942201C82FC770B1F4AF
:100D40008091080190910901892BA1F30E9467000D
:100D50002091140130911501621B730B80910801E1
:100D6000909109018617970728F709C061E08BE089
:100D70000E94D60060E080E00E94D600C1E08C2F87
:100D8000CF910895CF93DF93CDB7DEB728970FB6F5
:100D9000F894DEBF0FBECDBF882341F089E80E94E2
:100DA0002201682F616089E80E94D60060E088E82F
:100DB0000E94D60061E080E80E94D60061E08FEFDB
:100DC0000E94D60060E080E00E94D60081E90E9487
:100DD00022018093160161E080E00E94D60060E06D
:100DE0008FEF0E94D60060E080E80E94D60080E687
:100DF0000E942201682F626180E60E94D60060E2B4
:100E000070E084E40E94E8006FEF81E00E94D60069
:100E1000BE01695F7F4FCE0108960E945D0381117C
:100E200002C080E0D4C146E0BE016F5F7F4F80EB1F
:100E30000E94A80161E08FEF0E94D60060E08FE47D
:100E40000E94D6006CE28EE40E94D60060E08FEF34
:100E50000E94D60064EB86EB0E94D6008F81811140
:100E600002C040E001C04CE0A88580E090E061E075
:100E700070E0282F269526952695582F5770E1E08B
:100E8000F0E0EC0FFD1FE20FF11D841710F0A91325
:100E90000AC09B0101C0220F5A95EAF720953081C4
:100EA0002323208309C0208130E002C03595279597
:100EB0005A95E2F720FD9F5F8F5F8033D1F646E0C1
:100EC000BE016F5F7F4F80EB0E94860161E08FEF74
:100ED0000E94D60060E080E00E94D60060E08FEFC4
:100EE0000E94D60060E089E00E94D60060E080E1C8
:100EF0000E94D60060E081E10E94D60061E084E2B9
:100F00000E94D6006FEF85E20E94D60060E085E780
:100F10000E94D60061E08FEF0E94D6006CE28EE462
:100F20000E94D60060E088E40E94D60060E280E380
:100F30000E94D60060E08FEF0E94D60069E080E357
:100F40000E94D60060E084E50E94D60064E081E360
:100F50000E94D60063E082E30E94D60063E880E44A
:100F60000E94D60065E286E40E94D60060E080E63A
:100F70000E94D60060E087E20E94D60066E080E52D
:100F80000E94D60060E081E50E94D60066E982E515
:100F90000E94D60068E086E50E94D60060E387E5FF
:100FA0000E94D60060E081E60E94D60060E082E602
:100FB0000E94D60060E084E60E94D60060E085E6EC
:100FC0000E94D60060EA86E60E94D60061E08FEFBC
:100FD0000E94D60062E382E20E94D60064E187E4C8
:100FE0000E94D6006FEF89E40E94D60060E08AE498
:100FF0000E94D60060E08FEF0E94D6006AE08AE788
:101000000E94D60060E08BE70E94D60061E288E78C
:101010000E94D60061E08FEF0E94D60064E383E275
:101020000E94D60060E082E40E94D6006FEF84E464
:101030000E94D60066E285E40E94D60065E086E460
:101040000E94D60060E480E40E94D60066E08EE054
:101050000E94D6006AE180E20E94D60060E483E448
:101060000E94D60060E08FEF0E94D60063E084E328
:101070000E94D60064E485E30E94D60061E08FEF11
:101080000E94D60064E081E30E94D60069E08BE410
:101090000E94D60065E08CE40E94D60064E08DE4F6
:1010A0000E94D60060E08FEF0E94D60060E084E4EA
:1010B0000E94D60060E285E40E94D60068E087E4E2
:1010C0000E94D60068E288E40E94D60060E087E6CD
:1010D0000E94D60064E080E70E94D60061E081E7CC
:1010E0000E94D6006EEF82E70E94D60060E086E79D
:1010F0000E94D60060E087E70E94D60061E08FEF93
:101100000E94D60061E08DE00E94D60060E08FEF83
:101110000E94D60061E080E80E94D60068EF81E07E
:101120000E94D60061E08FEF0E94D60061E08EE859
:101130000E94D60061E080E00E94D60060E08FEF60
:101140000E94D60060E080E80E94D60064E08AE059
:101150000E94D60084E80E942201682F6F7E84E8F6
:101160000E94D60061E08BE00E94D6000E94150626
:1011700060931701709318018093190190931A01DD
:1011800068EE81E00E94D60060911701709118010D
:101190008091190190911A010E94380561E081E067
:1011A0000E94D60080E40E948E06882309F439CE7E
:1011B00062E081E00E94D60080E00E948E068823D3
:1011C00009F42FCE68EE81E00E94D60081E02896D7
:1011D0000FB6F894DEBF0FBECDBFDF91CF9108955B
:1011E0008F929F92AF92BF92CF92DF92EF92FF9237
:1011F0001F93CF93DF93CDB7DEB76B970FB6F894FD
:10120000DEBF0FBECDBF6C01162FF62EF694FA94FA
:10121000CE0147960E94EA03BE016F5F7F4FCE0169
:1012200047960E940704C114D10409F072C01E3011
:1012300069F028F41C3009F028C168E10AC01031B7
:1012400039F0123109F021C160E503C060E301C04B
:1012500060E487E50E94D60068E086E50E94D6003B
:101260006F2D80E50E94D600A12FB0E020E03FE284
:101270004AE350E00E94CC0C6B017C0124EFC20ECB
:1012800021E0D21EE11CF11CC701B60128EE33E0BB
:1012900040E050E00E94A40C49015A01C701B60188
:1012A00020ED37E040E050E00E94A40C69017A0193
:1012B0002F85388949895A89A8EEB3E00E94CC0C61
:1012C0006C0D7D1D8E1D9F1DA50194010E94A40C17
:1012D000C9010E94B400BC0181E50E94E8002B8591
:1012E0003C854D855E85A8EEB3E00E94CC0C6C0D6C
:1012F0007D1D8E1D9F1DA50194010E94A40C6FEF02
:10130000213081E0380708F4620F86E40E94D6009D
:10131000A1C0CA94CD2809F0B8C01A3069F1C8F448
:10132000183009F0B2C060E188E40E94D60068E09D
:1013300087E40E94D60062E082E30E94D6006CE05F
:1013400080E30E94D60061E08FEF0E94D60060E348
:1013500036C01C30F9F01E3009F097C068E488E40C
:101360000E94D60068E087E40E94D60063E082E332
:101370000E94D60067E01BC068E288E40E94D600A5
:1013800068E087E40E94D60063E082E30E94D60012
:1013900069E00DC068E388E40E94D60068E087E455
:1013A0000E94D60063E082E30E94D60068E080E3FA
:1013B0000E94D60061E08FEF0E94D60060E280E3D9
:1013C0000E94D60060E08FEF0E94D6006F2D80E76C
:1013D0000E94D600A12FB0E020E03FE24AE350E0B7
:1013E0000E94CC0C6B017C0124EFC20E21E0D21EC6
:1013F000E11CF11C2B893C894D895E89A8EEB3E084
:101400000E94CC0C4B015C01C701B60120ED37E016
:1014100040E050E00E94A40C820E931EA41EB51E54
:10142000C701B60128EE33E040E050E00E94A40C72
:10143000C501B4010E94A40CC9016A8D662321F084
:101440008F819885820F931F0E94B400BC0181E7B1
:101450000E94E800609117017091180180911901B4
:1014600090911A010E94380581E00E942201182FF4
:1014700062E081E00E94D60080E00E948E06612F2B
:1014800081E00E94D60081E001C080E06B960FB63B
:10149000F894DEBF0FBECDBFDF91CF911F91FF90BB
:1014A000EF90DF90CF90BF90AF909F908F90089576
:1014B0001092B9008CE08093B800089594EA90935C
:1014C000BC002FEF3FEF2150310959F09091BC0043
:1014D00097FFF9CF9091B900987F983021F0903123
:1014E00011F081E008958093BB0084E88093BC00F4
:1014F0008FEF9FEF0197A9F32091BC0027FFFACF50
:101500008091B900887F883111F0803451F780E0F4
:10151000089524EA34E844E92093BC009091BC008B
:1015200097FFFCCF9091B900987F983011F09031DF
:1015300099F78093BB003093BC009091BC0097FF5B
:10154000FCCF9091B900987F903211F0983539F422
:101550004093BC009091BC0094FDFCCFDDCF08957A
:101560000C945E0A84E98093BC008FEF9FEF019793
:1015700021F02091BC0024FDFACF08958093BB0098
:1015800084E88093BC008FEF9FEF019729F02091B2
:10159000BC0027FD03C0F9CF81E008959091B90008
:1015A000987F81E0983209F480E0089584EC80937C
:1015B000BC008FEF9FEF019739F02091BC0027FF0F
:1015C000FACF8091BB00089580E0089584E880936D
:1015D000BC008FEF9FEF019739F02091BC0027FFEF
:1015E000FACF8091BB00089580E00895CF93C0E0CA
:1015F0008C2F880F0E945E0A0E94B20ACF5FC0380B
:10160000B9F7CF9108951F920F920FB60F92112440
:101610002F933F934F935F936F937F938F939F93FA
:10162000AF93BF93EF93FF938091120190911301B9
:10163000883E934001F5809110019091110101962F
:1016400090931101809310011092130110921201D6
:101650008091100190911101CC9769F410921101C1
:101660001092100180910E0190910F0101969093BC
:101670000F0180930E0180911201909113016CE291
:1016800071E00E94900C892B89F480E090E00E9428
:10169000FD0290930D0180930C01809112019091B5
:1016A000130101969093130180931201209112016E
:1016B0003091130180910C0190910D016AE070E06E
:1016C0000E94900C685D7F4FC9010E94900C892B8D
:1016D000A1F480910C0190910D018C3D954068F42E
:1016E00094B188E0892784B9809112019091130107
:1016F0000196909313018093120180910C019091B7
:101700000D018C3D954008F0239880911201909135
:10171000130101969093130180931201FF91EF91B1
:10172000BF91AF919F918F917F916F915F914F91F9
:101730003F912F910F900FBE0F901F90189525B1DC
:10174000236325B92BB11BB86B30710528F5FB015C
:10175000EC5CFF4F0C94C60C2BB12C6F02C02BB16C
:1017600020662BB919C02BB12A6DFBCF2BB1226F8C
:10177000F8CF2BB12662F5CF2BB1266BF2CF2BB170
:101780002E6BEFCF2BB1206EECCF2BB12E6FE9CFAC
:101790002BB1266FE6CF589A8230910561F024F480
:1017A000019761F428980AC08330910531F00497BD
:1017B00029F42D9803C0299801C02C984130510577
:1017C00009F4589A089514BC15BC16BC8AEF87BD5D
:1017D00082E084BD83E085BD0895E0EBF0E01082F7
:1017E000A1EBB0E01C921092B2008DE78093B300A1
:1017F0008081836080838081806880838C91866013
:101800008C93089510928500109284008AEF90E0E6
:101810009093890080938800E1E8F0E080818860FF
:101820008083808183608083EFE6F0E08081826046
:10183000808308950E94ED0B0E94580A0E945E006A
:1018400078940E94020C8AB18FEF8AB984B18363C5
:1018500084B9239A81E00E94C20660E573EC80E0BF
:1018600090E00E94380594B188E0892784B9CAE0E5
:10187000D0E004E610E080910C0190910D018C3DC8
:10188000954008F042C080910C0190910D01BE017D
:101890000E94900C40E050E0BC0181E090E00E948A
:1018A0009F0B80910C0190910D01BE010E94900C44
:1018B000CB01BE010E94900C40E050E0BC0182E0F0
:1018C00090E00E949F0B80910C0190910D01B80156
:1018D0000E94900CCB01BE010E94900C40E050E0B1
:1018E000BC0183E090E00E949F0B80910C019091DD
:1018F0000D0168EE73E00E94900CCB01BE010E94C6
:10190000900C40E050E0BC0104C040E050E068EEC4
:1019100073E084E090E00E949F0B0E944E03ABCFE7
:10192000AA1BBB1B51E107C0AA1FBB1FA617B70705
:1019300010F0A61BB70B881F991F5A95A9F7809521
:101940009095BC01CD010895A1E21A2EAA1BBB1BE4
:10195000FD010DC0AA1FBB1FEE1FFF1FA217B3077B
:10196000E407F50720F0A21BB30BE40BF50B661F91
:10197000771F881F991F1A9469F760957095809555
:1019800090959B01AC01BD01CF010895EE0FFF1FA3
:101990000590F491E02D09940E94DF0CA59F900D15
:1019A000B49F900DA49F800D911D11240895B7FF41
:1019B0000C94CC0C0E94CC0C821B930B0895A29F1C
:1019C000B001B39FC001A39F700D811D1124911D13
:1019D000B29F700D811D1124911D08950E945F0D0D
:1019E00008F481E008950E948B0D88F09F5798F0CD
:1019F000B92F9927B751B0F0E1F0660F771F881F14
:101A0000991F1AF0BA95C9F714C0B13091F00E942D
:101A1000A50DB1E008950C94A50D672F782F8827A8
:101A2000B85F39F0B93FCCF3869577956795B39554
:101A3000D9F73EF490958095709561957F4F8F4FC3
:101A40009F4F0895E89409C097FB3EF490958095C8
:101A5000709561957F4F8F4F9F4F9923A9F0F92F74
:101A600096E9BB279395F695879577956795B795F2
:101A7000F111F8CFFAF4BB0F11F460FF1BC06F5FD8
:101A80007F4F8F4F9F4F16C0882311F096E911C0EA
:101A9000772321F09EE8872F762F05C0662371F00B
:101AA00096E8862F70E060E02AF09A95660F771F1F
:101AB000881FDAF7880F9695879597F90895990FFB
:101AC0000008550FAA0BE0E8FEEF16161706E80708
:101AD000F907C0F012161306E407F50798F0621B29
:101AE000730B840B950B39F40A2661F0232B242BFE
:101AF000252B21F408950A2609F4A140A6958FEF1D
:101B0000811D811D089557FD9058440F551F59F0B0
:101B10005F3F71F04795880F97FB991F61F09F3FDA
:101B200079F087950895121613061406551FF2CF03
:101B30004695F1DF08C0161617061806991FF1CF53
:101B400086957105610508940895E894BB2766277A
:101B50007727CB0197F908950E945F0D08F48FEF66
:101B600008950E94C40D0C94350E0E94270E38F083
:101B70000E942E0E20F0952311F00C941E0E0C9452
:101B8000240E11240C94A60D0E94830D70F3959FD2
:101B9000C1F3950F50E0551F629FF001729FBB2764
:101BA000F00DB11D639FAA27F00DB11DAA1F649F00
:101BB0006627B00DA11D661F829F2227B00DA11DB3
:101BC000621F739FB00DA11D621F839FA00D611D39
:101BD000221F749F3327A00D611D231F849F600D5A
:101BE000211D822F762F6A2F11249F5750409AF083
:101BF000F1F088234AF0EE0FFF1FBB1F661F771F0F
:101C0000881F91505040A9F79E3F510580F00C94D9
:101C10001E0E0C94A60D5F3FE4F3983ED4F3869518
:101C200077956795B795F795E7959F5FC1F7FE2B79
:101C3000880F911D9695879597F9089597F99F6755
:101C400080E870E060E008959FEF80EC0895002444
:101C50000A941616170618060906089500240A9411
:101C600012161306140605060895092E0394000C97
:101C700011F4882352F0BB0F40F4BF2B11F460FF26
:101C800004C06F5F7F4F8F4F9F4F0895F894FFCF31
:021C9000520000
:00000001FF
